:020000040000FA
:100000009802001059020000610200006302000023
:1000100065020000670200006902000000000000A5
:100020000000000000000000000000006B02000063
:100030006D020000000000006F020000710200006D
:1000400073020000730200007302000073020000DC
:10005000730200000103000073020000730200003D
:1000600073020000730200007302000073020000BC
:1000700073020000730200007302000073020000AC
:10008000730200007302000073020000730200009C
:10009000730200007302000073020000730200008C
:1000A000730200007302000073020000730200007C
:1000B000730200007302000073020000730200006C
:1000C00073020000730200007302000000F002F8E7
:1000D00000F050F814A696E8000CB244B344DA4598
:1000E00001D100F047F8BAE80F000FA696E83000FB
:1000F000A5EB040504EB0607AAEB0704A7F101072B
:100100004FEA15154FEA3414A4F10104AC4201D3AF
:1001100000F030F813F0010F18BFFB1A43F0010391
:1001200000F001F8DBE71847B0060000D006000039
:10013000103A24BF78C878C1FAD8520724BF30C813
:1001400030C144BF04680C60704700007047000075
:100150000023002400250026103A28BF78C1FBD8D0
:10016000520728BF30C148BF0B6070471FB51FBD85
:1001700010B510BD00F091F81146FFF7F7FF00F041
:1001800009F800F0AFF803B4FFF7F2FF03BC00F08A
:10019000EDFA00004CF22000C2F20900016841F4BF
:1001A00080210160C16941F48021C1614FF4165082
:1001B00000F0F4F840F27870C0F2000000F0DAF8D5
:1001C00040F29105C1F200052878F8B140F29004A0
:1001D000C1F200042078D8B1002020700EA000F0F9
:1001E000C9F82878B0B140F28600C1F2000000786A
:1001F000217800BF00291CBF002121700028F9D000
:1002000010A000F0B7F800BFFEE700BFFEE700BF98
:10021000FEE700BFFEE700BF496E74726F6475634E
:100220006520756E20636F6D616E646F3A20286182
:1002300070616761206F20656E6369656E64652912
:10024000200A0D0046494E2064656C2070726F676D
:1002500072616D610A0D0000094880470948004736
:10026000FEE7FEE7FEE7FEE7FEE7FEE7FEE7FEE766
:10027000FEE7FEE704480549034A054B70470000C6
:10028000A9050000CD0000009800001098020010A1
:1002900098000010704770477047754600F062FA8A
:1002A000AE4605006946534620F00700854618B063
:1002B00020B5FFF7DFFFBDE820404FF000064FF00C
:1002C00000074FF000084FF0000BAC46ACE8C00947
:1002D000ACE8C009ACE8C009ACE8C00921F00701EE
:1002E0008D46704710B50446AFF300802046BDE848
:1002F0001040FFF748BF704700000000FFFFFFFFFE
:100300004CF20000C4F20000816801F00E010229E5
:100310001DD004292CD1017840F28800C1F20000E0
:10032000026811700268511C016012780D2A18BF12
:10033000704700220A7040F29001C1F200010122D0
:100340000A7040F26801C1F200010160704740F29A
:100350008C01C1F200010B681A781AB101330B60ED
:100360000270704740F29100C1F20000012101705B
:10037000704700BF40F2910240F28C01C1F20002CE
:100380000023C1F200011370421C0A6000784CF295
:100390000001C4F200010870704700BF2DE9F04F62
:1003A00082B04CF20001C4F202010A684CF20C0364
:1003B00042F05002C4F200030A60197848F2A068C3
:1003C00019701978012241F00301197040F20001FF
:1003D000C1F2000109680024890900914108C0F2B6
:1003E00001084FF6FC7B4FF0000A4FF0000901278F
:1003F000019200BF009A002307FB02F607E000BF4E
:100400009946AA46A04601970133102B1BD0FD1830
:10041000B6FBF5FCBCFBF0F505FB10CE8E4588BFA6
:100420000135EA1E5A45EFD8BCFBF5F2141A98BF05
:10043000841A4445E8D2002CE2D100240197994661
:10044000AA464FF0000814B10137102FD2D148F25C
:100450001F5100EB4000C5F2EB11A0FB0101B8EB0E
:10046000511F4CF20C01C4F2000113D2087840F085
:10047000800008704FEA1A2001F8080C01F80CAC53
:10048000087800F07F000870019A09F00F0040EA38
:1004900002100877032041F8080C4EF20010CEF24B
:1004A00000002021016040F2880040F26801C1F2A2
:1004B0000000C1F20001016040F29100C1F20000B1
:1004C0000021017040F29000C1F20000017002B002
:1004D000BDE8F08F10B54CF28804C4F20F04206818
:1004E000D4F8841000F04070B0F1407F01F00300B8
:1004F0000CD1DFE800F002173702206840F6001147
:10050000400080B20230C0F23D0113E0DFE800F0AD
:1005100002223E02E06F40F60011C0B20130C0F28C
:100520003D0138E0206841F60031400080B20230E1
:10053000C0F2B7012268A0FB0101C2F307420132F9
:10054000002300F097F8E26F0023D2B2013200F0EE
:1005500091F822E0E06F41F60031C0B20130C0F204
:10056000B70118E020680021C7F6FF7101EA0040DA
:100570002168E26FC1F3074100F580300131B0FB23
:10058000F1F0D1B20131B0FBF1F006E0E06F4FF4D1
:100590000041C0B20130B1FBF0F040F20001C1F205
:1005A0000001086010BD00BF4CF28C00C4F20F00C7
:1005B0002021C0F81411D0F81411890604D500BF09
:1005C000D0F814114906FBD503218167002163226D
:1005D000C0F81C11C0F820110121C0F20502C0F8BA
:1005E000801040F8082CAA2255230260036040F8CE
:1005F0000C1C0260036000BF50F8041C4901FBD5CD
:10060000032140F80C1CAA2101605521016000BFA4
:1006100050F8041C01F04071B1F1407FF8D1232162
:100620008161AA21552201230162026243610162B4
:10063000026200BFC1694905FCD503214161AA21BD
:1006400001625521016200BFC16901F44071B1F539
:10065000407FF9D148F2DE71C0F228418163002168
:10066000C0F83C1150F88C1C042262F30F3140F8A2
:100670008C1C704753EA020C00F069802DE9F04BA6
:100680004FF00006002B1FBFB3FA83F503FA05F401
:1006900024FA05F65E4012BF1643B2FA82F502FA5A
:1006A00005F4C5F120051EBF22FA05FC44EA0C043E
:1006B000203556EA044C4FEA144418BF641C4FF02E
:1006C00000084FF00009904271EB030C39D3002968
:1006D00019BFB1FA81F701FA07F6B0FA80F700FA0C
:1006E00007F6C7F120071EBF20FA07FC46EA0C06F2
:1006F0002037B6FBF4FCA7EB0507103F07F01F0BF4
:10070000CBF120062CFA06F60CFA0BFB44BFB346DD
:100710000026202FA4BF5E464FF0000B5BEA060CBC
:1007200008BF4FF0010B19EB0B0948EB0608ABFBB8
:10073000027C06FB02CC0BFB03CCC01B71EB0C0153
:10074000C1E70B46024641464846BDE8F08B13B56B
:10075000084318BF4FF0FF300146AFF30080BDE8FB
:100760001C407047004870470800001001491820DD
:10077000ABBEFEE7260002004573746F2065732050
:10078000756E6120707275656261206465206C61B0
:100790002055415254302064656C204C5043313711
:1007A0003638206120393630302062617564696FD7
:1007B000730A0D496E74726F6475636520747520D9
:1007C0006E6F6D6272652079206170656C6C696412
:1007D0006F730A0D00000000F80700000000001011
:1007E00008000000300100000008000008000010B0
:1007F000900200005001000000E1F505000000003B
:04000005000000CD2A
:00000001FF
